{
  "contractName": "Banc",
  "abi": [
    {
      "anonymous": false,
      "inputs": [
        {
          "indexed": false,
          "internalType": "address",
          "name": "investor",
          "type": "address"
        },
        {
          "indexed": false,
          "internalType": "uint256",
          "name": "amount",
          "type": "uint256"
        }
      ],
      "name": "Invest",
      "type": "event"
    },
    {
      "anonymous": false,
      "inputs": [
        {
          "indexed": false,
          "internalType": "address",
          "name": "investor",
          "type": "address"
        },
        {
          "indexed": false,
          "internalType": "uint256",
          "name": "amount",
          "type": "uint256"
        }
      ],
      "name": "Withdraw",
      "type": "event"
    },
    {
      "constant": true,
      "inputs": [
        {
          "internalType": "address",
          "name": "",
          "type": "address"
        }
      ],
      "name": "balance",
      "outputs": [
        {
          "internalType": "uint256",
          "name": "",
          "type": "uint256"
        }
      ],
      "payable": false,
      "stateMutability": "view",
      "type": "function"
    },
    {
      "constant": true,
      "inputs": [],
      "name": "stepTime",
      "outputs": [
        {
          "internalType": "uint256",
          "name": "",
          "type": "uint256"
        }
      ],
      "payable": false,
      "stateMutability": "view",
      "type": "function"
    },
    {
      "constant": true,
      "inputs": [
        {
          "internalType": "address",
          "name": "",
          "type": "address"
        }
      ],
      "name": "time",
      "outputs": [
        {
          "internalType": "uint256",
          "name": "",
          "type": "uint256"
        }
      ],
      "payable": false,
      "stateMutability": "view",
      "type": "function"
    },
    {
      "constant": false,
      "inputs": [],
      "name": "bankAccount",
      "outputs": [],
      "payable": true,
      "stateMutability": "payable",
      "type": "function"
    },
    {
      "constant": false,
      "inputs": [
        {
          "internalType": "uint256",
          "name": "_percentDeposit",
          "type": "uint256"
        }
      ],
      "name": "setPercentDeposit",
      "outputs": [],
      "payable": false,
      "stateMutability": "nonpayable",
      "type": "function"
    },
    {
      "constant": true,
      "inputs": [],
      "name": "getPercentRate",
      "outputs": [
        {
          "internalType": "uint256",
          "name": "",
          "type": "uint256"
        }
      ],
      "payable": false,
      "stateMutability": "view",
      "type": "function"
    },
    {
      "constant": false,
      "inputs": [],
      "name": "deposit",
      "outputs": [],
      "payable": true,
      "stateMutability": "payable",
      "type": "function"
    },
    {
      "constant": true,
      "inputs": [],
      "name": "payoutAmount",
      "outputs": [
        {
          "internalType": "uint256",
          "name": "",
          "type": "uint256"
        }
      ],
      "payable": false,
      "stateMutability": "view",
      "type": "function"
    },
    {
      "constant": false,
      "inputs": [],
      "name": "returnDeposit",
      "outputs": [],
      "payable": true,
      "stateMutability": "payable",
      "type": "function"
    },
    {
      "constant": false,
      "inputs": [],
      "name": "collectPercent",
      "outputs": [],
      "payable": false,
      "stateMutability": "nonpayable",
      "type": "function"
    }
  ],
  "bytecode": "0x608060405260b4600255600c600355600f60055534801561001f57600080fd5b506107c18061002f6000396000f3fe6080604052600436106100915760003560e01c80637e88f603116100595780637e88f60314610172578063d0e30db01461017c578063e3d670d714610186578063eb0c6c83146101eb578063f488fdd01461022657610091565b80631cd01e3a14610096578063377a0f53146100ad5780636b46c8c3146100b7578063751ac117146100e25780637c67a3e21461010d575b600080fd5b3480156100a257600080fd5b506100ab610251565b005b6100b561047f565b005b3480156100c357600080fd5b506100cc610495565b6040518082815260200191505060405180910390f35b3480156100ee57600080fd5b506100f76104ee565b6040518082815260200191505060405180910390f35b34801561011957600080fd5b5061015c6004803603602081101561013057600080fd5b81019080803573ffffffffffffffffffffffffffffffffffffffff1690602001909291905050506104f8565b6040518082815260200191505060405180910390f35b61017a610510565b005b610184610626565b005b34801561019257600080fd5b506101d5600480360360208110156101a957600080fd5b81019080803573ffffffffffffffffffffffffffffffffffffffff169060200190929190505050610764565b6040518082815260200191505060405180910390f35b3480156101f757600080fd5b506102246004803603602081101561020e57600080fd5b810190808035906020019092919050505061077c565b005b34801561023257600080fd5b5061023b610786565b6040518082815260200191505060405180910390f35b60008060003373ffffffffffffffffffffffffffffffffffffffff1673ffffffffffffffffffffffffffffffffffffffff1681526020019081526020016000205411610305576040517f08c379a00000000000000000000000000000000000000000000000000000000081526004018080602001828103825260108152602001807f436c69656e74206e6f742065786973740000000000000000000000000000000081525060200191505060405180910390fd5b600254600160003373ffffffffffffffffffffffffffffffffffffffff1673ffffffffffffffffffffffffffffffffffffffff16815260200190815260200160002054014210156103be576040517f08c379a00000000000000000000000000000000000000000000000000000000081526004018080602001828103825260198152602001807f566572692073686f727420706572696f64206f662074696d650000000000000081525060200191505060405180910390fd5b60006103c8610495565b90503373ffffffffffffffffffffffffffffffffffffffff166108fc829081150290604051600060405180830381858888f19350505050158015610410573d6000803e3d6000fd5b507f884edad9ce6fa2440d8a54cc123490eb96d2768479d49ff9c7366125a94243643382604051808373ffffffffffffffffffffffffffffffffffffffff1673ffffffffffffffffffffffffffffffffffffffff1681526020018281526020019250505060405180910390a150565b662386f26fc1000034101561049357600080fd5b565b60008060646003546000803373ffffffffffffffffffffffffffffffffffffffff1673ffffffffffffffffffffffffffffffffffffffff1681526020019081526020016000205402816104e457fe5b0490508091505090565b6000600354905090565b60016020528060005260406000206000915090505481565b60008060003373ffffffffffffffffffffffffffffffffffffffff1673ffffffffffffffffffffffffffffffffffffffff16815260200190815260200160002054905060008060003373ffffffffffffffffffffffffffffffffffffffff1673ffffffffffffffffffffffffffffffffffffffff168152602001908152602001600020819055506000600160003373ffffffffffffffffffffffffffffffffffffffff1673ffffffffffffffffffffffffffffffffffffffff168152602001908152602001600020819055503373ffffffffffffffffffffffffffffffffffffffff166108fc829081150290604051600060405180830381858888f19350505050158015610622573d6000803e3d6000fd5b5050565b600034111561076257346000803373ffffffffffffffffffffffffffffffffffffffff1673ffffffffffffffffffffffffffffffffffffffff16815260200190815260200160002054016000803373ffffffffffffffffffffffffffffffffffffffff1673ffffffffffffffffffffffffffffffffffffffff1681526020019081526020016000208190555042600160003373ffffffffffffffffffffffffffffffffffffffff1673ffffffffffffffffffffffffffffffffffffffff168152602001908152602001600020819055507fd90d253a9de34d2fdd5a75ae49ea17fcb43af32fc8ea08cc6d2341991dd3872e3334604051808373ffffffffffffffffffffffffffffffffffffffff1673ffffffffffffffffffffffffffffffffffffffff1681526020018281526020019250505060405180910390a15b565b60006020528060005260406000206000915090505481565b8060038190555050565b6002548156fea265627a7a723158201423a07c8514c099637cf3870a5bca5fbdc00e771cb387aa09c1e3bcffa9ed8564736f6c63430005100032",
  "source": "  // SPDX-License-Identifier: MIT\n  pragma solidity >=0.4.22 <0.9.0;\n\n  contract Banc {\n\n  mapping(address => uint) public balance;\n  mapping(address => uint) public time;\n  uint public stepTime = 0.05 hours;\n  uint percentDeposit = 12;\n  address payable wallet;\n  uint percentCredit = 15;\n\n  event Invest(address investor, uint256 amount);\n  event Withdraw(address investor, uint256 amount);\n\n  modifier userExist() {\n    require(balance[msg.sender] > 0, \"Client not exist\");\n    _;\n  }\n\n  modifier checkTime() {\n    require(block.timestamp>= time[msg.sender]+stepTime, \"Veri short period of time\");\n    _;\n  }\n\n  function bankAccount() public payable {\n    require(msg.value >= 0.01 ether);\n  }\n\n  function setPercentDeposit(uint _percentDeposit) public {\n    percentDeposit = _percentDeposit;\n  }\n\n  function getPercentRate() public view returns(uint) {\n    return percentDeposit;\n  }\n\n  function deposit() public payable {\n    if (msg.value > 0) {\n          balance[msg.sender] = balance[msg.sender]+msg.value;\n      time[msg.sender] = block.timestamp;\n      emit Invest(msg.sender, msg.value);\n    }\n  }\n\n  function payoutAmount() public view returns(uint256) {\n    uint rate = balance[msg.sender]*percentDeposit/100;\n    return rate;\n  }\n\n  function returnDeposit() public payable {\n    uint withdrawallAmount = balance[msg.sender];\n    balance[msg.sender] = 0;\n    time[msg.sender] = 0;\n    msg.sender.transfer(withdrawallAmount);\n  }\n\n\n  function collectPercent() userExist checkTime public {\n    uint payout = payoutAmount();\n    msg.sender.transfer(payout);\n    emit Withdraw(msg.sender, payout); \n  }\n  }\n",
  "sourcePath": "D:/IT/solidity/SimpleFinance/contracts/Banc.sol",
  "compiler": {
    "name": "solc",
    "version": "0.5.16+commit.9c3226ce.Emscripten.clang"
  },
  "schemaVersion": "3.4.1",
  "updatedAt": "2021-05-27T11:53:31.182Z",
  "networkType": "ethereum",
  "devdoc": {
    "methods": {}
  },
  "userdoc": {
    "methods": {}
  }
}